{
  "_format": "hh-sol-artifact-1",
  "contractName": "PhishingLedger",
  "sourceName": "contracts/PhishingLedger.sol",
  "abi": [
    {
      "inputs": [],
      "stateMutability": "nonpayable",
      "type": "constructor"
    },
    {
      "anonymous": false,
      "inputs": [
        {
          "indexed": true,
          "internalType": "bytes32",
          "name": "urlHash",
          "type": "bytes32"
        }
      ],
      "name": "PhishingConfirmed",
      "type": "event"
    },
    {
      "anonymous": false,
      "inputs": [
        {
          "indexed": true,
          "internalType": "bytes32",
          "name": "urlHash",
          "type": "bytes32"
        },
        {
          "indexed": false,
          "internalType": "address",
          "name": "reporter",
          "type": "address"
        }
      ],
      "name": "SuspectReported",
      "type": "event"
    },
    {
      "inputs": [],
      "name": "THRESHOLD",
      "outputs": [
        {
          "internalType": "uint8",
          "name": "",
          "type": "uint8"
        }
      ],
      "stateMutability": "view",
      "type": "function"
    },
    {
      "inputs": [
        {
          "internalType": "address",
          "name": "_newValidator",
          "type": "address"
        }
      ],
      "name": "addValidator",
      "outputs": [],
      "stateMutability": "nonpayable",
      "type": "function"
    },
    {
      "inputs": [
        {
          "internalType": "bytes32",
          "name": "",
          "type": "bytes32"
        },
        {
          "internalType": "address",
          "name": "",
          "type": "address"
        }
      ],
      "name": "hasVoted",
      "outputs": [
        {
          "internalType": "bool",
          "name": "",
          "type": "bool"
        }
      ],
      "stateMutability": "view",
      "type": "function"
    },
    {
      "inputs": [
        {
          "internalType": "bytes32",
          "name": "_urlHash",
          "type": "bytes32"
        }
      ],
      "name": "isBlacklisted",
      "outputs": [
        {
          "internalType": "bool",
          "name": "",
          "type": "bool"
        }
      ],
      "stateMutability": "view",
      "type": "function"
    },
    {
      "inputs": [
        {
          "internalType": "bytes32",
          "name": "",
          "type": "bytes32"
        }
      ],
      "name": "records",
      "outputs": [
        {
          "internalType": "bytes32",
          "name": "urlHash",
          "type": "bytes32"
        },
        {
          "internalType": "uint256",
          "name": "timestamp",
          "type": "uint256"
        },
        {
          "internalType": "uint8",
          "name": "approvalCount",
          "type": "uint8"
        },
        {
          "internalType": "bool",
          "name": "isConfirmed",
          "type": "bool"
        }
      ],
      "stateMutability": "view",
      "type": "function"
    },
    {
      "inputs": [
        {
          "internalType": "bytes32",
          "name": "_urlHash",
          "type": "bytes32"
        }
      ],
      "name": "reportPhishing",
      "outputs": [],
      "stateMutability": "nonpayable",
      "type": "function"
    },
    {
      "inputs": [],
      "name": "validatorCount",
      "outputs": [
        {
          "internalType": "uint8",
          "name": "",
          "type": "uint8"
        }
      ],
      "stateMutability": "view",
      "type": "function"
    },
    {
      "inputs": [
        {
          "internalType": "address",
          "name": "",
          "type": "address"
        }
      ],
      "name": "validators",
      "outputs": [
        {
          "internalType": "bool",
          "name": "",
          "type": "bool"
        }
      ],
      "stateMutability": "view",
      "type": "function"
    }
  ],
  "bytecode": "0x608060405234801561001057600080fd5b5060018060003373ffffffffffffffffffffffffffffffffffffffff1673ffffffffffffffffffffffffffffffffffffffff16815260200190815260200160002060006101000a81548160ff0219169083151502179055506001600360006101000a81548160ff021916908360ff160217905550610aa3806100936000396000f3fe608060405234801561001057600080fd5b50600436106100885760003560e01c8063785ffb371161005b578063785ffb371461012a5780637b98ab8414610148578063aadc3b7214610164578063fa52c7d81461019457610088565b806301e647251461008d5780630f43a677146100c05780634d238c8e146100de5780636b623bbe146100fa575b600080fd5b6100a760048036038101906100a29190610730565b6101c4565b6040516100b794939291906107bc565b60405180910390f35b6100c861020e565b6040516100d59190610801565b60405180910390f35b6100f860048036038101906100f3919061087a565b610221565b005b610114600480360381019061010f9190610730565b6103cc565b60405161012191906108a7565b60405180910390f35b6101326103f8565b60405161013f9190610801565b60405180910390f35b610162600480360381019061015d9190610730565b6103fd565b005b61017e600480360381019061017991906108c2565b6106a6565b60405161018b91906108a7565b60405180910390f35b6101ae60048036038101906101a9919061087a565b6106d5565b6040516101bb91906108a7565b60405180910390f35b60006020528060005260406000206000915090508060000154908060010154908060020160009054906101000a900460ff16908060020160019054906101000a900460ff16905084565b600360009054906101000a900460ff1681565b600160003373ffffffffffffffffffffffffffffffffffffffff1673ffffffffffffffffffffffffffffffffffffffff16815260200190815260200160002060009054906101000a900460ff166102ad576040517f08c379a00000000000000000000000000000000000000000000000000000000081526004016102a49061095f565b60405180910390fd5b600160008273ffffffffffffffffffffffffffffffffffffffff1673ffffffffffffffffffffffffffffffffffffffff16815260200190815260200160002060009054906101000a900460ff161561033a576040517f08c379a0000000000000000000000000000000000000000000000000000000008152600401610331906109cb565b60405180910390fd5b60018060008373ffffffffffffffffffffffffffffffffffffffff1673ffffffffffffffffffffffffffffffffffffffff16815260200190815260200160002060006101000a81548160ff0219169083151502179055506003600081819054906101000a900460ff16809291906103b090610a1a565b91906101000a81548160ff021916908360ff1602179055505050565b600080600083815260200190815260200160002060020160019054906101000a900460ff169050919050565b600281565b600160003373ffffffffffffffffffffffffffffffffffffffff1673ffffffffffffffffffffffffffffffffffffffff16815260200190815260200160002060009054906101000a900460ff16610489576040517f08c379a00000000000000000000000000000000000000000000000000000000081526004016104809061095f565b60405180910390fd5b600080600083815260200190815260200160002090508060020160019054906101000a900460ff16156104bc57506106a3565b60008160010154036105315781816000018190555042816001018190555060008160020160006101000a81548160ff021916908360ff160217905550817f22bac089f4fcd3103c799189c297046f98d359364e03d210b5dc69356653bb33336040516105289190610a52565b60405180910390a25b6002600083815260200190815260200160002060003373ffffffffffffffffffffffffffffffffffffffff1673ffffffffffffffffffffffffffffffffffffffff16815260200190815260200160002060009054906101000a900460ff166106a15760016002600084815260200190815260200160002060003373ffffffffffffffffffffffffffffffffffffffff1673ffffffffffffffffffffffffffffffffffffffff16815260200190815260200160002060006101000a81548160ff02191690831515021790555080600201600081819054906101000a900460ff168092919061061d90610a1a565b91906101000a81548160ff021916908360ff16021790555050600260ff168160020160009054906101000a900460ff1660ff16106106a05760018160020160016101000a81548160ff021916908315150217905550817f587f2702a4914c736f3ce5303c922aa198c615f3bec52451586d73d62da2adf860405160405180910390a25b5b505b50565b60026020528160005260406000206020528060005260406000206000915091509054906101000a900460ff1681565b60016020528060005260406000206000915054906101000a900460ff1681565b600080fd5b6000819050919050565b61070d816106fa565b811461071857600080fd5b50565b60008135905061072a81610704565b92915050565b600060208284031215610746576107456106f5565b5b60006107548482850161071b565b91505092915050565b610766816106fa565b82525050565b6000819050919050565b61077f8161076c565b82525050565b600060ff82169050919050565b61079b81610785565b82525050565b60008115159050919050565b6107b6816107a1565b82525050565b60006080820190506107d1600083018761075d565b6107de6020830186610776565b6107eb6040830185610792565b6107f860608301846107ad565b95945050505050565b60006020820190506108166000830184610792565b92915050565b600073ffffffffffffffffffffffffffffffffffffffff82169050919050565b60006108478261081c565b9050919050565b6108578161083c565b811461086257600080fd5b50565b6000813590506108748161084e565b92915050565b6000602082840312156108905761088f6106f5565b5b600061089e84828501610865565b91505092915050565b60006020820190506108bc60008301846107ad565b92915050565b600080604083850312156108d9576108d86106f5565b5b60006108e78582860161071b565b92505060206108f885828601610865565b9150509250929050565b600082825260208201905092915050565b7f4163636573732044656e6965643a204e6f7420612056616c696461746f720000600082015250565b6000610949601e83610902565b915061095482610913565b602082019050919050565b600060208201905081810360008301526109788161093c565b9050919050565b7f416c726561647920612076616c696461746f7200000000000000000000000000600082015250565b60006109b5601383610902565b91506109c08261097f565b602082019050919050565b600060208201905081810360008301526109e4816109a8565b9050919050565b7f4e487b7100000000000000000000000000000000000000000000000000000000600052601160045260246000fd5b6000610a2582610785565b915060ff8203610a3857610a376109eb565b5b600182019050919050565b610a4c8161083c565b82525050565b6000602082019050610a676000830184610a43565b9291505056fea2646970667358221220c9c3db3e7a1aae6581fa14a85bcadd999e057e5e73110f76fc67a03505cd59b364736f6c63430008120033",
  "linkReferences": {},
  "deployedLinkReferences": {}
}